:020000040800F2
:10000000440C0020F101000849020008FF05000827
:1000100049020008490200084902000800000000E7
:10002000000000000000000000000000490200087D
:1000300049020008000000004902000849020008C7
:100040004902000849020008490200084902000864
:100050004902000849020008490200084902000854
:100060004902000849020008490200084902000844
:100070004902000849020008490200084902000834
:100080004902000849020008490200084902000824
:100090004902000849020008490200084902000814
:1000A0004902000849020008490200084902000804
:1000B00049020008490200084902000849020008F4
:1000C00049020008490200084902000849020008E4
:1000D00049020008490200084902000849020008D4
:1000E00049020008490200084902000849020008C4
:1000F00049020008490200084902000849020008B4
:1001000049020008490200084902000849020008A3
:100110004902000849020008490200084902000893
:100120004902000849020008490200084902000883
:100130004902000849020008490200084902000873
:100140004902000849020008490200084902000863
:100150004902000849020008490200084902000853
:100160004902000849020008490200084902000843
:100170004902000849020008490200084902000833
:10018000490200084902000810B50C4B1A7899186A
:100190000132D2B29C181A700132487000210F2A25
:1001A000617002D80A2800D038B9197004490420B7
:1001B0000022BDE8104000F019BA10BD3004002044
:1001C0003104002007B509E0019B3BB10720002165
:1001D00001AA00F00BFA9DF8040007E040F20110BC
:1001E000002101AA00F002FA0028EDD10EBD0000A6
:1001F00008B50F4A0F4B104903E052F8040B43F8BF
:10020000040B8B42F9D30D480D494FF00002884290
:10021000B8BF40F8042BFADBDFF82800016841F48E
:100220007001016000F0F6F9BDE8084000F046B842
:100230008408000800000020300400203004002062
:100240004404002088ED00E0FEE7F8B504460F46C0
:100250000026FFF7B7FF0D2805460FD01B2813D047
:10026000082817D1002EF4D0FFF78EFF2020FFF7CB
:100270008BFF2846013EFFF787FFEAE70027A755D7
:10028000FFF782FF3846F8BD0023A3550A20FFF789
:100290007BFF0FE0A0F12003DBB25E2B06D8BE424D
:1002A00004D2A0550136FFF76FFF01E00D2D03D0FA
:1002B0001B2DCED10120F8BD0020F8BD00B50A4BA2
:1002C0000A485A6942F400728BB05A6100F04EF944
:1002D000074800F04BF927216846FFF7B6FF69464B
:1002E000044800F077F9F3E700ED00E0400800086B
:1002F0004D0800085A0800080346002001E01A547F
:1003000001300A5C002AFAD1704770B51646013AEE
:10031000092B04461D4609D90A23B5FBF3F3FFF761
:10032000F4FF241808E004F8011B00E0002318463D
:100330000133F21A002AF6DC0A23B5FBF3F203FBC1
:10034000125330332370013070BD70B583EAE3750A
:10035000A5EBE375013A092D04460AD9002B4FF0AD
:100360000A03B5FBF3F3B8BF5B42FFF7EEFF2218B9
:1003700013E0002BB8BF013A002001E02154013006
:10038000161A002EFADC22EAE270002B04EB0002BF
:1003900003DA2D232354013201300A23B5FBF3F194
:1003A00003FB115330331370013070BDF7B5089D56
:1003B00004461E46531E28090AD000901A462046BD
:1003C0003346FFF7F3FF241808E004F8011B00E0B0
:1003D000034618460133D71A002FF6DC05F00F0547
:1003E000092D01D8303503E00EB1373500E057351F
:1003F00025700130FEBD2DE9F74304460E4608B1D5
:100400000021017000254FF00A096DE0252903D075
:1004100004F8011B013205E05178252904D104F8C4
:10042000011B023201355FE0302903D002F1010CDB
:10043000202101E002F1020C002204E009FB02028B
:10044000303A02F0FF029CF80000A0F130085FFA99
:1004500088F8B8F1090F67460CF1010CEED905EBED
:10046000020CB44584BFC5EB0602D2B269280ED097
:1004700006D8632831D0642809D0582841D11CE01F
:1004800075280BD0782811D073283AD11EE003F1DB
:10049000040820461B68FFF758FF05E003F1040835
:1004A00020461B68FFF731FF43461AE003F10408BA
:1004B0001B6820460093002305E003F104081B6835
:1004C000204600930123FFF771FFEDE720461968EE
:1004D00003F10408FFF710FFE6E71A680120227015
:1004E00004337A1C24182D18117809B1B5428DD324
:1004F000B5424FF0000332BF237004F8013C013DC8
:1005000001E04FF0FF352846BDE8FE8310B50C46EC
:10051000134664212246BDE81040FFF76CBF00007F
:10052000084B1B689A68914210B5044602D0DB68FC
:10053000994203D1E0B2FFF727FE01E04FF0FF340C
:10054000204610BD0000002070B506460D46002470
:1005500005E02946FFF7E4FF431C04D00134305D79
:100560000028F6D100E00446204670BD024B1B680F
:100570009968FFF7E9BF00BF0000002070B5A2B086
:100580000E4615460C492422044619A800F0B6F878
:10059000684631462A46FFF7B9FF632806DD074B58
:1005A0001B6819A8D968FFF7CFFFFEE76846214608
:1005B000FFF7CAFF22B070BD5F08000800000020EE
:1005C0000A4603490968034688681946FFF7D6BFFB
:1005D000000000200FB407B504A951F8040B0191E5
:1005E000FFF7EEFFBDE80E4004B07047ABBE01E080
:1005F00000207047002A00D0106001207047069844
:100600000188034A914202D1043006907047FEE708
:10061000ABBE0000334B1A6842F001021A600022A0
:100620009A60196821F0847121F4803119602E4993
:100630005960196882B021F480211960DA60009253
:1006400001921A6842F480321A601A6802F4003289
:100650000192009A01320092019A1AB9009AB2F5F9
:10066000A06FF2D11F4B1B6813F4003318BF012396
:100670000193019B012B2ED11A4B1A6C42F0805230
:100680001A641A4A116841F4804111609A689A60AC
:100690009A6842F400429A609A6842F4A0529A60C2
:1006A000134A5A601A6842F080721A6019680D4A3B
:1006B0008901FBD50F4B40F205611960936823F067
:1006C00003039360936843F002039360936803F01D
:1006D0000C03082BFAD1084B4FF000629A6002B06D
:1006E000704700BF00380240103000240070004006
:1006F00008544007003C024000ED00E00F2A2DE9BD
:10070000F00340F2958041EA00039B0740F092809D
:100710000C6804604D6845608E68A2F11003866025
:10072000CC681D460F2DC460C3F3001601F1100400
:1007300000F1100322D966B126681E6066685E600B
:10074000A6689E60E668103DDE60103410330F2D01
:1007500014D926681E6066685E60A6689E60E668BA
:10076000DE6026691E6166695E61A6699E61E66952
:10077000203DDE61203420330F2DEAD8A2F1100392
:1007800023F00F0402F00F031034032B00EB0408D6
:10079000214451D9A3F104090B464FEA990901EB11
:1007A000890C53F8046BC1EB0C0544460CF1040CA6
:1007B000634544F8046BC5F3800512D02DB153F89E
:1007C000045B634544F8045B0BD01E46254656F88F
:1007D000047B45F8047B5F68331D67602C1D63450F
:1007E000F3D109F101039C00091902F0030244440A
:1007F000DAB123460D7803F8015BA218E44314191B
:10080000934204F0010410D02CB111F8014F03F809
:10081000014B934209D04D781C4604F8015B8D785A
:100820005D70631C02319342F5D1BDE8F00370475F
:100830000446DDE70446DCE744461A46D8E700BF35
:1008400048656C6C6F20776F726C6421000A456E8E
:1008500074657220746578743A000A25730A00730F
:100860007464696F2E633A20696E637265617365A3
:10087000204D41585F535452494E475F53495A45A2
:030880000A0D005E
:10088400080000200000000000000000000000003C
:100894000100000000000000000000000000000053
:1008A4000000000000000000000000000000000044
:1008B4000000000000000000000000000000000034
:1008C4000000000000000000000000000000000024
:1008D4000000000000000000000000000000000014
:0400000508000000EF
:00000001FF
