:020000040800F2
:10000000FC0700208D010008890100088901000813
:10001000890100088901000889010008000000002A
:10002000000000000000000000000000890100083E
:10003000890100080000000089010008890100080A
:100040008901000889010008890100088901000868
:100050008901000889010008890100088901000858
:100060008901000889010008890100088901000848
:100070008901000889010008890100088901000838
:100080008901000889010008890100088901000828
:100090008901000889010008890100088901000818
:1000A0008901000889010008890100088901000808
:1000B00089010008890100088901000889010008F8
:1000C00089010008890100088901000889010008E8
:1000D00089010008890100088901000889010008D8
:1000E00089010008890100088901000889010008C8
:1000F00089010008890100088901000889010008B8
:1001000089010008890100088901000889010008A7
:100110008901000889010008890100088901000897
:100120008901000889010008890100088901000887
:100130008901000889010008890100088901000877
:100140008901000889010008890100088901000867
:100150008901000889010008890100088901000857
:100160008901000889010008890100088901000847
:100170008901000889010008890100088901000837
:100180008901000889010008FEE7000000230B4AEE
:100190000B499818884204D20A48195899500433D8
:1001A000F5E7094809494FF000028842B8BF40F816
:1001B000042BFFF6FAAF00F011B800BF00000020DA
:1001C0000000002040030008000000200000002084
:1001D00010F1FF3001D300BFFAE7704738B5194B73
:1001E0005A6942F40070586100F034F816490C6BFB
:1001F000A1F5305344F008050D631A68002142F060
:10020000AA401860D960114C11484FF480552583DD
:10021000FFF7DEFF65834FF4005525830C48FFF799
:10022000D7FF65834FF4804525830948FFF7D0FF4A
:1002300065834FF4004525830548FFF7C9FF6583B3
:10024000E1E700BF00ED00E000380240000C024092
:10025000FFFF3F00344B1A6842F001000022186093
:100260009A60196821F0847020F480312F48196059
:100270005860196882B021F480201860DA6000921A
:1002800001921A6842F480311960274B186800F413
:10029000003201920099481C0090019A1AB9009905
:1002A000B1F5A06FF1D11B6813F4003018BF012025
:1002B0000190019A012A05D01D484FF0006282602A
:1002C00002B07047184B1B4A196C41F080501864FB
:1002D000116841F4804010609A689A60996841F40E
:1002E000004098609A68144842F4A05199605860A0
:1002F0001A6842F0807119601A680B489101FBD5A9
:100300000E4B40F205611960826822F003018160A2
:10031000836843F0020282600348816801F00C03A5
:10032000082BF9D1C8E700BF003802401030002484
:1003300000ED00E00070004008544007003C02401F
:0400000508000000EF
:00000001FF
